:100000000C945E000C9486000C9486000C94860080
:100010000C9486000C9486000C9486000C94860048
:100020000C9486000C9486000C9486000C94860038
:100030000C9486000C9486000C9486000C94860028
:100040000C94DC020C9486000C944C030C94260354
:100050000C9486000C9486000C9486000C94860008
:100060000C9486000C948600000000080002010039
:100070000003040700000000000000000000000072
:10008000250028002B0000000000240027002A0083
:10009000040404040404040402020202020203032E
:1000A0000303030301020408102040800102040836
:1000B00010200102040810207E03AB0511241FBE8E
:1000C000CFEFD8E0DEBFCDBF22E0A4E5B1E001C0B4
:1000D0001D92A530B207E1F711E0A0E0B1E0E0E049
:1000E000F0E102C005900D92A435B107D9F710E0F8
:1000F000CDE5D0E004C02197FE010E94F205CC3589
:10010000D107C9F70E94B9030C94F3070C940000BF
:1001100090E0FC01EC55FF4F249180579F4FFC016C
:100120008491882399F090E0880F991FFC01EA5789
:10013000FF4FA591B491FC01E458FF4F8591949134
:100140008FB7F894EC91E22BEC938FBF089590E079
:10015000FC01E859FF4F2491FC01EC55FF4F34910D
:10016000FC01E057FF4FE491EE23C9F0222339F060
:10017000233001F1A8F4213019F1223029F1F0E007
:10018000EE0FFF1FE458FF4FA591B4918FB7F8947D
:10019000EC91611126C030953E233C938FBF0895AA
:1001A0002730A9F02830C9F0243049F78091800029
:1001B0008F7D03C0809180008F7780938000DFCF98
:1001C00084B58F7784BDDBCF84B58F7DFBCF8091E5
:1001D000B0008F778093B000D2CF8091B0008F7D38
:1001E000F9CF3E2BDACFAF92BF92CF92DF92EF9250
:1001F000FF920F931F93CF93DF936C017B018B01D1
:10020000040F151FEB015E01AE18BF08C017D10720
:1002100059F06991D601ED91FC910190F081E02DAA
:10022000C6010995892B79F7C501DF91CF911F91FF
:100230000F91FF90EF90DF90CF90BF90AF90089517
:10024000FC01538D448D252F30E0842F90E0821BDC
:10025000930B541710F0CF96089501970895FC0161
:10026000918D828D981761F0A28DAE0FBF2FB11DB9
:100270005D968C91928D9F5F9F73928F90E0089511
:100280008FEF9FEF0895FC01918D828D981731F0CB
:10029000828DE80FF11D858D90E008958FEF9FEF1F
:1002A0000895FC01918D228D892F90E0805C9F4FF5
:1002B000821B91098F73992708958EE591E00E9422
:1002C000510121E0892B09F420E0822F0895FC01DF
:1002D000A48DA80FB92FB11DA35ABF4F2C91848DA7
:1002E00090E001968F739927848FA689B7892C9304
:1002F000A089B1898C91837080648C93938D848D57
:10030000981306C00288F389E02D80818F7D808359
:100310000895EF92FF920F931F93CF93DF93EC0119
:1003200081E0888F9B8D8C8D98131AC0E889F9899C
:10033000808185FF15C09FB7F894EE89FF8960839F
:10034000E889F98980818370806480839FBF81E020
:1003500090E0DF91CF911F910F91FF90EF90089562
:10036000F62E0B8D10E00F5F1F4F0F731127E02E3D
:100370008C8D8E110CC00FB607FCFACFE889F98975
:10038000808185FFF5CFCE010E946701F1CFEB8D13
:10039000EC0FFD2FF11DE35AFF4FF0829FB7F89449
:1003A0000B8FEA89FB8980818062CFCFCF93DF9367
:1003B000EC01888D8823B9F0AA89BB89E889F9897D
:1003C0008C9185FD03C0808186FD0DC00FB607FCB2
:1003D000F7CF8C9185FFF2CF808185FFEDCFCE01E5
:1003E0000E946701E9CFDF91CF910895FF920F93AB
:1003F0001F93CF93DF93F82E862F642F0E94A700C0
:10040000C2E3D0E00BE91FE061E08F2D0E94A7005E
:10041000C8010197F1F760E08F2D0E94A700C80185
:100420000197F1F7219781F7DF91CF911F910F91FC
:10043000FF90089542E050E068E171E08EE591E0C0
:100440000C94F300FC0180819181009711F00C94D1
:1004500094060895FC0124813581232B39F421E091
:10046000FB018081882349F020E007C080819181D1
:100470000E94E30721E0892BB9F7822F08950F939B
:100480001F93CF93DF93EC0188819981009759F0F6
:100490002A813B812617370730F081E0DF91CF9129
:1004A0001F910F9108958B016F5F7F4F0E941D0771
:1004B000009759F0998388831B830A832C813D819F
:1004C000232B59F7FC011082E8CF80E0E7CFFF92A1
:1004D0000F931F93CF93DF9300D0CDB7DEB7FF24E8
:1004E000F3948EE591E00E945101892B61F18EE534
:1004F00091E00E942F018A3019F4F0925401F1CF5B
:1005000089831A820091FF01109100020F5F1F4F33
:10051000B8018BEF91E00E943F02882311F32091F4
:10052000FB013091FC018091FF0190910002BE011E
:100530006F5F7F4F820F931F0E94EC0710930002A2
:100540000093FF01CECF0F900F90DF91CF911F91BD
:100550000F91FF9008950E945D0181110C94670234
:100560000895EF92FF920F931F93CF93DF93EC01C7
:100570007B018A01BA010E943F02288139818111E1
:1005800014C02115310519F0C9010E949406198281
:1005900018821D821C821B821A82CE01DF91CF91AC
:1005A0001F910F91FF90EF9008951D830C83B70169
:1005B000C9010E94EC07F1CF1F920F920FB60F9264
:1005C00011242F933F938F939F93AF93BF93809169
:1005D0005A0190915B01A0915C01B0915D01309155
:1005E000590123E0230F2D3758F50196A11DB11DA8
:1005F0002093590180935A0190935B01A0935C0171
:10060000B0935D018091550190915601A0915701E1
:10061000B09158010196A11DB11D80935501909391
:100620005601A0935701B0935801BF91AF919F918C
:100630008F913F912F910F900FBE0F901F901895A3
:1006400026E8230F0296A11DB11DD2CF1F920F9253
:100650000FB60F9211242F933F934F935F936F9395
:100660007F938F939F93AF93BF93EF93FF938EE509
:1006700091E00E946701FF91EF91BF91AF919F912F
:100680008F917F916F915F914F913F912F910F903B
:100690000FBE0F901F9018951F920F920FB60F92DA
:1006A00011242F938F939F93EF93FF93E0916E010B
:1006B000F0916F018081E0917401F091750182FDEC
:1006C0001BC09081809177018F5F8F73209178019B
:1006D000821741F0E0917701F0E0E25AFE4F958FEA
:1006E00080937701FF91EF919F918F912F910F90C0
:1006F0000FBE0F901F9018958081F4CFEEE5F1E0CA
:100700001382128288EE93E0A0E0B0E084839583A8
:10071000A683B7838AE091E09183808385EC90E0A3
:100720009587848784EC90E09787868780EC90E0BB
:10073000918B808B81EC90E0938B828B82EC90E0AC
:10074000958B848B86EC90E0978B868B118E128E26
:10075000138E148EEBEFF1E011821082138212825D
:100760001582148250E040E06AE171E0CF010C9400
:10077000B102CF93DF9300D000D000D0CDB7DEB769
:10078000789484B5826084BD84B5816084BD85B56C
:10079000826085BD85B5816085BD80916E00816078
:1007A00080936E001092810080918100826080931E
:1007B0008100809181008160809381008091800020
:1007C0008160809380008091B10084608093B1004B
:1007D0008091B00081608093B00080917A00846045
:1007E00080937A0080917A00826080937A00809171
:1007F0007A00816080937A0080917A00806880938B
:100800007A001092C100E0916E01F0916F0182E0D8
:100810008083E0916A01F0916B011082E0916C019C
:10082000F0916D018FEC808310927601E09172015E
:10083000F091730186E08083E0917001F091710185
:10084000808180618083E0917001F09171018081ED
:1008500088608083E0917001F091710180818068EF
:100860008083E0917001F091710180818F7D8083A0
:1008700068EC70E08BEF91E00E943F0282E00E9402
:10088000880083E00E94880084E00E94880085E060
:100890000E94880086E00E94880087E00E9488000D
:1008A00088E00E94880061E088E00E94A70060E084
:1008B00082E00E94A70060E083E00E94A70060E061
:1008C00084E00E94A70060E085E00E94A70060E04D
:1008D00086E00E94A70060E087E00E94A700809168
:1008E0005401882351F1C090FB01D090FC01C11448
:1008F000D10441F00091FF01109100027601011531
:10090000110519F56BE171E08BEF91E00E942A026D
:10091000882309F456C041E050E066E271E08EE5BC
:1009200091E00E94F3000E941A0250E040E06AE168
:1009300071E08BEF91E00E94B1020E945D0188237B
:1009400071F20E946702CBCF750157018FEFA81A91
:10095000B80AF7018081082E000C990B0E94AF05A0
:10096000892B91F7015011090C0D1D1DF801808193
:10097000082E000C990B0E94AF05892B31F00E1543
:100980001F0518F001501109F1CFA8014F5F5F4F0B
:100990004E195F09509300024093FF01CE14DF040B
:1009A00020F4B701C6010E94DA07E091FB01F09143
:1009B000FC018091FF0190910002E80FF91F108265
:1009C000A1CF1A8219821C821B821E821D82609115
:1009D000FB017091FC016115710541F04091FF012F
:1009E00050910002CE0101960E94B10268E271E0CE
:1009F000CE0101960E942A0241E081110AC06CE2F8
:100A000071E0CE0101960E942A02882309F451C0A8
:100A100040E067E070E084E090E00E94F601CE01E3
:100A200001960E9422021A8219821C821B821E8257
:100A30001D826091FB017091FC016115710541F00F
:100A40004091FF0150910002CE0101960E94B10237
:100A50000D811E810C5F1F4FB801CE0101960E94CF
:100A60003F0229813A81882309F468C08D819E81E3
:100A70006EE471E0820F931F0E94EC071E830D83CA
:100A80004D815E8169817A818EE591E00E94F3005B
:100A90000E941A02CE0101960E94220250E040E01C
:100AA0006AE171E08BEF91E00E94B1021092540173
:100AB00044CF61E371E0CE0101960E942A0241E039
:100AC000811109C065E371E0CE0101960E942A02FE
:100AD000882331F040E066E070E083E090E09DCF55
:100AE0006AE371E0CE0101960E942A02882331F068
:100AF00041E065E070E082E090E08FCF6EE371E06E
:100B0000CE0101960E942A0240E08111F2CF65E4F5
:100B100071E0CE0101960E942A0260E081110AC0B4
:100B200063E471E0CE0101960E942A02882309F451
:100B300076CF61E088E00E94A70071CF21153105D2
:100B400019F0C9010E9494061A8219821E821D8220
:100B50001C821B8295CF8BEF91E00C9422029111A5
:100B60000C94B805803219F089508550C8F7089563
:100B70009927882708952F923F924F925F926F9204
:100B80007F928F929F92AF92BF92CF92DF92EF921D
:100B9000FF920F931F93CF93DF93CDB7DEB7CA1B9E
:100BA000DB0B0FB6F894DEBF0FBECDBF09942A88C9
:100BB000398848885F846E847D848C849B84AA8471
:100BC000B984C884DF80EE80FD800C811B81AA81FE
:100BD000B981CE0FD11D0FB6F894DEBF0FBECDBFC9
:100BE000ED010895EE0FFF1F0590F491E02D09949B
:100BF0000F931F93CF93DF938230910510F482E01F
:100C000090E0E0910302F091040230E020E0B0E0D7
:100C1000A0E0309799F42115310509F44AC0281B4A
:100C2000390B24303105D8F58A819B816115710516
:100C300089F1FB0193838283FE0111C040815181C0
:100C40000281138148175907E0F04817590799F4B2
:100C5000109761F012960C93129713961C9332968C
:100C6000CF01DF91CF911F910F910895009303025F
:100C700010930402F4CF2115310551F042175307A8
:100C800038F0A901DB019A01BD01DF01F801C1CFF4
:100C9000EF01F9CF9093040280930302CDCFFE01C0
:100CA000E20FF31F819391932250310939832883F6
:100CB000D7CF2091010230910202232B41F42091E1
:100CC000020130910301309302022093010220912E
:100CD0000001309101012115310541F42DB73EB7D6
:100CE0004091040150910501241B350BE091010254
:100CF000F0910202E217F307A0F42E1B3F0B281716
:100D0000390778F0AC014E5F5F4F2417350748F084
:100D10004E0F5F1F50930202409301028193919303
:100D20009FCFF0E0E0E09CCFCF93DF930097E9F016
:100D3000FC01329713821282A0910302B091040247
:100D4000ED0130E020E01097A1F420813181820F85
:100D5000931F20910102309102022817390709F0F0
:100D600061C0F0930202E0930102DF91CF910895F8
:100D7000EA01CE17DF07E8F54A815B819E01411544
:100D80005105B1F7E901FB83EA8349915991C40FF9
:100D9000D51FEC17FD0761F4808191810296840FC5
:100DA000951FE90199838883828193819B838A833C
:100DB000F0E0E0E012968D919C9113970097B9F5C1
:100DC0002D913C911197CD010296820F931F209196
:100DD0000102309102022817390739F6309751F590
:100DE0001092040210920302B0930202A093010237
:100DF000BCCFD383C28340815181840F951FC81714
:100E0000D90761F44E5F5F4F88819981480F591F60
:100E1000518340838A819B8193838283211531058D
:100E200009F0B0CFF0930402E09303029ECFFD01DE
:100E3000DC01C0CF13821282D7CFB0E0A0E0E3E2A2
:100E4000F7E00C94BD058C01009751F4CB010E9492
:100E5000F8058C01C801CDB7DEB7E0E10C94D905E7
:100E6000FC01E60FF71F9C0122503109E217F3073E
:100E700008F49DC0D901CD91DC911197C617D70711
:100E800098F0C530D10530F3CE0104978617970747
:100E900008F3C61BD70B2297C193D1936D937C9314
:100EA000CF010E949406D6CF5B01AC1ABD0A4C015B
:100EB0008C0E9D1EA0910302B0910402512C412C76
:100EC000F12CE12C109731F58091010290910202F2
:100ED0008815990509F05CC04616570608F058C0F9
:100EE0008091000190910101009741F48DB79EB768
:100EF0004091040150910501841B950BE817F907F7
:100F000008F055C0F0930202E0930102F9017183E9
:100F10006083A0CF8D919C91119712966C9012973F
:100F200013967C901397A815B90559F56C0142E00A
:100F3000C40ED11CCA14DB0420F1AC014A195B09B0
:100F4000DA011296159780F0628273825183408392
:100F5000D9016D937C93E114F10471F0D7011396DC
:100F6000FC93EE93129776CF22968C0F9D1FF9017A
:100F700091838083F301EFCFF0930402E0930302A7
:100F800069CF4816590608F42C017D01D3019ACF88
:100F9000CB010E94F8057C01009749F0AE01B80131
:100FA0000E94DA07C8010E949406870153CF10E01F
:100FB00000E050CFFB01DC0102C001900D924150D6
:100FC0005040D8F70895FB01DC018D910190801904
:100FD0000110D9F3990B0895FB01DC0101900D92EA
:100FE0000020E1F7089510E0CDE5D0E004C0FE0157
:100FF0000E94F2052196CE35D107C9F7F894FFCFAC
:10100000000005028000000000008901F3002001BB
:10101000D60151012F0143010D0A006765745F6419
:1010200065766963650031007A6377007A63637778
:10103000007963770079636377007863770078637A
:1010400063770064656163746976617465003A4131
:04105000434B00000E
:00000001FF
